:020000040800F2
:1000000000000220210F0108390C0008410C0008F3
:10001000490C0008510C0008590C000800000000B1
:10002000000000000000000000000000F15E000879
:10003000610C00080000000041610008D948000878
:10004000710F0108710F0108710F0108710F01088C
:10005000710F0108710F0108710F0108710F01087C
:10006000710F0108710F0108710F0108710F01086C
:10007000710F0108710F0108710F0108710F01085C
:10008000710F0108710F0108710F010800000000D5
:10009000000000000000000000000000710F0108D7
:1000A000710F0108710F0108710C0008710F010830
:1000B000710F0108710F0108710F0108710F01081C
:1000C000710F0108710F0108710F0108710F01080C
:1000D000710F01088D0C0008710F0108000000006D
:1000E000710F0108710F0108710F01080000000075
:1000F000000000000000000000000000710F010877
:1001000000000000710F0108710F0108710F010854
:1001100000000000000000000000000000000000DF
:10012000710F0108710F0108A10C0008710F01087F
:10013000710F010800000000000000000000000036
:10014000000000000000000000000000B50C0008E6
:10015000710F0108710F0108C90C0008710F010827
:10016000710F0108710F010800000000000000007D
:10017000000000000000000000000000000000007F
:1001800000000000710F01080000000000000000E6
:08019000710F0108710F010855
:1001A000034613F8012B002AFBD1181A01387047B7
:1001B00001F0FF01102A2BDB10F0070F08D010F818
:1001C000013B013A8B422DD010F0070F42B3F6D11C
:1001D000F0B441EA012141EA014122F007047FF035
:1001E00000070023F0E80256083C85EA010586EA8C
:1001F000010685FA47F5A3FA87F586FA47F6A5FAC8
:1002000087F68EB9EED1F0BC01F0FF0102F00702D3
:1002100032B110F8013B013A83EA010313B1F8D17E
:100220000020704701387047002D06BF354603385F
:10023000073815F0010F07D1013015F4807F02BF98
:10024000013015F4C03F0130F0BC0138704700BFE9
:1002500053B94AB9002908BF00281CBF4FF0FF312D
:100260004FF0FF3000F00CB8ADF1080C6DE904CE92
:1002700012F06EF9DDF804E0DDE9022304B0704706
:10028000704700BF0348044B834202D0034B03B1C5
:10029000184770475C0800205C0800200000000040
:1002A0000548064B1B1AD90F01EBA301491002D0D8
:1002B000034B03B1184770475C0800205C0800201E
:1002C0000000000010B5064C237843B9FFF7DAFFB1
:1002D000044B13B10448AFF300800123237010BD19
:1002E0005C080020000000000C28010808B5054B40
:1002F0001BB105490548AFF30080BDE80840FFF792
:10030000CFBF00BF00000000600800200C280108DB
:1003100080B500AF02480BF04FF800BF80BD00BFB2
:100320000809002080B400AF034B1B685B6A1846C5
:10033000BD465DF8047B70470809002080B582B097
:1003400000AF754B1B680AF081FF00F047F900F021
:10035000B9FB00F08FFB00F063FB00F0A7F900F0A1
:1003600099FA00F0F5F900F0E3FA00216B480BF080
:1003700039F904216A480BF035F904F0C7FA694AE3
:100380000021012004F0AAFE0346674A1360674A71
:100390000021012004F0A2FE0346654A1360654A6D
:1003A0000021012004F09AFE0346634A1360634A69
:1003B0000021012004F092FE0346614A1360614A65
:1003C0000021012004F08AFE03465F4A1360564B69
:1003D0001B68184604F05EFF554B1B68184604F076
:1003E00059FF554B1B68184604F054FF544B1B68CB
:1003F000184604F04FFF544B1B68184604F04AFFA0
:10040000524B00220121524804F0A6FC0346514AF7
:100410001360514B00220121504804F09DFC03461B
:100420004F4A13604F4B002200214F4804F094FCC8
:1004300003464E4A13604E4A0421042004F06EFF26
:1004400003464C4A13604C4A0421042004F066FF22
:1004500003464A4A13604A4A0421042004F05EFF1E
:100460000346484A1360484A0021484804F098FA75
:100470000346474A1360474A0021474804F090FA70
:100480000346464A1360464A0021464804F088FA6B
:100490000346454A1360454A0021454804F080FA66
:1004A0000346444A1360444A0021444804F078FA61
:1004B0000346434A1360434A0021434804F070FA5C
:1004C0000346424A1360424804F0F0FC0346414AA6
:1004D000136004F03FFA00237B6014E000224FF425
:1004E00000513D480AF09AF919200AF0F1FE012264
:1004F0004FF4005138480AF091F932200AF0E8FE32
:100500007B6801337B607B68072BE7D94FF4487029
:100510000AF0DEFEDFE700BFA42B0108C0080020C0
:1005200050090020442B0108C8380020542B010832
:100530001C390020642B010870390020742B01083D
:10054000C4390020842B0108183A0020142B01081C
:10055000EB06010838380020242B01086503010848
:1005600068380020342B0108D50201089838002093
:10057000CC2A01080C370020E42A0108703700203B
:10058000FC2A0108D4370020F4290108F50B0008E3
:100590009C0A0020182A0108E9FB0008040D00202D
:1005A0003C2A010805F900086C150020602A0108A2
:1005B000D1010108D41D0020842A0108BD040108CE
:1005C0003C260020A82A010801070108A42E0020CB
:1005D000942B01086C3A00200008024080B594B0CA
:1005E00000AF07F1200330220021184610F0A3FECF
:1005F00007F10C0300221A605A609A60DA601A61EF
:100600000023BB60274B1B6C264A43F080531364C6
:10061000244B1B6C03F08053BB60BB6800237B60E2
:10062000214B1B68204A43F4404313601E4B1B6858
:1006300003F440437B607B6801233B624FF48033CB
:100640007B620223BB634FF48003FB6319233B648B
:10065000C0237B640223BB640423FB6407F12003F3
:10066000184609F0CDFA0346002B01D000F0DEFA5F
:100670000F23FB6002233B6100237B614FF4805317
:10068000BB610023FB6107F10C030321184609F04D
:100690002FFD0346002B01D000F0C8FA00BF5037F1
:1006A000BD4680BD003802400070004080B584B077
:1006B00000AF3B4600221A605A609A60DA60214B14
:1006C000214A1A601F4B4FF480325A601D4B0022A2
:1006D0009A601C4B00221A611A4B00221A76194BA1
:1006E000002283F82020174B0022DA62154B174AAC
:1006F0009A62144B0022DA60124B0122DA61114B2C
:10070000002283F830200F4B01225A610D4810F06F
:1007100049F80346002B01D000F088FA00233B6023
:1007200001237B600023BB603B461946054810F05F
:10073000C9F90346002B01D000F078FA00BF10374A
:10074000BD4680BD78080020002001400100000F58
:1007500080B596B000AF07F1480300221A605A60D6
:100760009A60DA6007F1400300221A605A6007F1CC
:10077000240300221A605A609A60DA601A615A6192
:100780009A613B1D20220021184610F0D4FD3F4BFA
:100790003F4A1A603D4B00225A603C4B00229A604F
:1007A0003A4B42F27F52DA60384B00221A61374BE3
:1007B00000225A61354B00229A6134480AF0ACFDA0
:1007C0000346002B01D000F031FA4FF48053BB6494
:1007D00007F1480319462D480BF07EF90346002B1C
:1007E00001D000F023FA29480AF0A2FE0346002BAC
:1007F00001D000F01BFA00233B6400237B6407F167
:100800004003194621480BF023FD0346002B01D07D
:1008100000F00CFA60237B6242F27F53BB6200233C
:10082000FB6200233B6300237B630023BB63002345
:10083000FB6307F124030022194614480BF08AF8E1
:100840000346002B01D000F0F1F900237B60002368
:10085000BB600023FB6000233B6100237B614FF4FE
:100860000053BB6100233B623B1D194607480BF058
:100870005DFD0346002B01D000F0D8F9034800F0DD
:10088000EFFA00BF5837BD4680BD00BFC00800204A
:100890000000014080B586B000AF07F108030022D8
:1008A0001A605A609A60DA603B4600221A605A6009
:1008B0001E4B4FF080421A601C4B42F27F525A602E
:1008C0001A4B00229A60194B4FF0FF32DA60174B37
:1008D00000221A61154B00229A6114480AF01CFD8F
:1008E0000346002B01D000F0A1F94FF48053BB6008
:1008F00007F1080319460D480BF0EEF80346002BEC
:1009000001D000F093F900233B6000237B603B465D
:10091000194606480BF09CFC0346002B01D000F062
:1009200085F900BF1837BD4680BD00BF080900200B
:1009300080B58EB000AF07F1280300221A605A601C
:100940009A60DA6007F1200300221A605A603B1DAA
:1009500000221A605A609A60DA601A615A619A61DC
:100960002D4B2E4A1A602C4B00225A602A4B002233
:100970009A60294B42F27F52DA60274B00221A61BB
:10098000254B00229A6124480AF0C6FC0346002B3E
:1009900001D000F04BF94FF48053BB6207F12803FC
:1009A00019461D480BF098F80346002B01D000F0C3
:1009B0003DF919480AF0BCFD0346002B01D000F0B8
:1009C00035F900233B6200237B6207F120031946BF
:1009D00011480BF03DFC0346002B01D000F026F936
:1009E00060237B6042F27F53BB600023FB600023E7
:1009F0007B613B1D0422194607480AF0ABFF034602
:100A0000002B01D000F012F9034800F029FA00BFD2
:100A10003837BD4680BD00BF5009002000040040AB
:100A200080B500AF114B124A1A60104B4FF41652AA
:100A30005A600E4B00229A600C4B0022DA600B4B7E
:100A400000221A61094B0C225A61084B00229A615C
:100A5000064B0022DA6105480BF0CEFC0346002B62
:100A600001D000F0E3F800BF80BD00BF980900206E
:100A70000010014080B582B000AF00237B60104BB6
:100A80001B6B0F4A43F4800313630D4B1B6B03F482
:100A900080037B607B68002205213A200AF0ACFBD2
:100AA0003A200AF0C5FB0022052146200AF0A4FBEB
:100AB00046200AF0BDFB00BF0837BD4680BD00BF21
:100AC0000038024080B58AB000AF07F1140300225D
:100AD0001A605A609A60DA601A6100233B61414BE8
:100AE0001B6B404A43F0040313633E4B1B6B03F044
:100AF00004033B613B690023FB603A4B1B6B394AA3
:100B000043F080031363374B1B6B03F08003FB60E0
:100B1000FB680023BB60334B1B6B324A43F001037D
:100B20001363304B1B6B03F00103BB60BB680023F6
:100B30007B602C4B1B6B2B4A43F002031363294B46
:100B40001B6B03F002037B607B6800224FF40051B3
:100B5000254809F063FE00221E21244809F05EFEAC
:100B600001224021214809F059FE002242F20401ED
:100B70001F4809F053FE01224FF480511C4809F030
:100B80004DFE4FF400537B610123BB610023FB61E9
:100B900000233B6207F114031946134809F0BAFC1D
:100BA0005E237B610123BB610023FB6100233B6269
:100BB00007F1140319460D4809F0ACFC43F2040395
:100BC0007B610123BB610023FB6100233B6207F1D2
:100BD00014031946064809F09DFC00BF2837BD469E
:100BE00080BD00BF00380240000802400000024003
:100BF0000004024080B582B000AF786005F04AFC86
:100C0000012004F078F8FBE780B582B000AF78608F
:100C10007B681B68044A934201D10AF039FB00BF8C
:100C20000837BD4680BD00BF0048014080B400AF1A
:100C300072B600BF00BFFDE780B400AF00BFFDE7A4
:100C400080B400AF00BFFDE780B400AF00BFFDE798
:100C500080B400AF00BFFDE780B400AF00BFFDE788
:100C600080B400AF00BFBD465DF8047B7047000054
:100C700080B500AF03480AF065FD03480AF062FD45
:100C800000BF80BDC0080020903A002080B500AFB2
:100C900002480BF0E3FC00BF80BD00BF98090020B4
:100CA00080B500AF024809F085FF00BF80BD00BFDE
:100CB000DC09002080B500AF024806F025FA00BF2D
:100CC00080BD00BF2865002080B500AF024809F054
:100CD00071FF00BF80BD00BF3C0A002080B582B01C
:100CE00000AF00237B60124B5B6C114A43F48043DE
:100CF00053640F4B5B6C03F480437B607B68002381
:100D00003B600B4B1B6C0A4A43F080531364084B47
:100D10001B6C03F080533B603B6800220F216FF097
:100D200001000AF069FA00BF0837BD4680BD00BF68
:100D30000038024080B58AB000AF786007F1140334
:100D400000221A605A609A60DA601A617B681B6838
:100D5000174A934227D100233B61164B5B6C154A1F
:100D600043F480735364134B5B6C03F480733B61F7
:100D70003B690023FB600F4B1B6B0E4A43F00103E2
:100D800013630C4B1B6B03F00103FB60FB68012337
:100D90007B610323BB610023FB6107F11403194648
:100DA000054809F0B7FB00BF2837BD4680BD00BF2E
:100DB00000200140003802400000024080B586B0AB
:100DC00000AF78607B681B68224A934216D10023EB
:100DD0007B61214B5B6C204A43F0010353641E4B43
:100DE0005B6C03F001037B617B69002205211A2003
:100DF0000AF002FA1A200AF01BFA26E07B681B6848
:100E0000B3F1804F0ED100233B61134B1B6C124A90
:100E100043F001031364104B1B6C03F001033B61AF
:100E20003B6912E07B681B680C4A93420DD100239A
:100E3000FB60094B1B6C084A43F002031364064B2A
:100E40001B6C03F00203FB60FB6800BF1837BD4654
:100E500080BD00BF00000140003802400004004097
:100E600080B58AB000AF786007F1140300221A60E1
:100E70005A609A60DA601A617B681B68244A934260
:100E80001FD100233B61234B1B6B224A43F001031C
:100E90001363204B1B6B03F001033B613B694FF471
:100EA00080737B610223BB610023FB6100233B62F3
:100EB00001237B6207F114031946174809F02AFB46
:100EC00022E07B681B68154A93421DD10023FB601A
:100ED000104B1B6B0F4A43F0010313630D4B1B6B4D
:100EE00003F00103FB60FB6880237B610223BB618D
:100EF0000023FB6100233B6202237B6207F11403A2
:100F00001946054809F006FB00BF2837BD4680BDDD
:100F10000000014000380240000002400004004090
:100F200080B58AB000AF786007F1140300221A6020
:100F30005A609A60DA601A617B681B684C4A934277
:100F400040F0918000233B614A4B5B6C494A43F07F
:100F500010035364474B5B6C03F010033B613B6928
:100F60000023FB60434B1B6B424A43F001031363B6
:100F7000404B1B6B03F00103FB60FB684FF4C06345
:100F80007B610223BB610023FB6103233B620723D8
:100F90007B6207F114031946374809F0BBFA374B57
:100FA000374A1A60354B4FF000625A60334B0022CB
:100FB0009A60324B0022DA60304B4FF480621A6143
:100FC0002E4B00225A612D4B00229A612B4B00229E
:100FD000DA612A4B00221A62284B00225A62274803
:100FE00009F050FC0346002B01D0FFF71FFE7B6881
:100FF000224A9A63214A7B689363224B224A1A60F1
:10100000204B4FF000625A601E4B40229A601D4BED
:101010000022DA601B4B4FF480621A61194B0022E8
:101020005A61184B00229A61164B0022DA61154B67
:1010300000221A62134B00225A62124809F022FC65
:101040000346002B01D0FFF7F1FD7B680D4A5A6380
:101050000C4A7B6893630022052125200AF0CCF816
:1010600025200AF0E5F800BF2837BD4680BD00BF47
:10107000001001400038024000000240DC0900205E
:10108000406402403C0A0020B864024080B483B04F
:1010900000AF786000BF0C37BD465DF8047B704739
:1010A00080B483B000AF786000BF0C37BD465DF8F8
:1010B000047B704780B58CB000AF78600023BB62C2
:1010C00000237B620023BB602E4B5B6C2D4A43F4F4
:1010D000802353642B4B5B6C03F48023BB60BB68A1
:1010E00007F10C0207F110031146184609F0E0F968
:1010F00009F0CAF9B862BB6A234AA2FB03239B0C1E
:10110000013B7B62214B224A1A60204B40F2E732BE
:10111000DA601E4A7B6A53601C4B00221A611B4B2B
:1011200000229A60194B00229A6118480AF0F4F8DC
:10113000034687F82F3097F82F30002B1BD1134828
:101140000AF094F9034687F82F3097F82F30002BD8
:1011500011D11A200AF06CF87B680F2B08D80022F6
:1011600079681A200AF048F80A4A7B68136002E09E
:10117000012387F82F3097F82F3018463037BD46B7
:1011800080BD00BF0038024083DE1B43903A002040
:10119000004801406800002080B586B000AF78604C
:1011A0007B68002B0BD14FF0500383F31188BFF302
:1011B0006F8FBFF34F8F3B6100BF00BFFDE7202360
:1011C000BB60BB68202B0BD04FF0500383F311881A
:1011D000BFF36F8FBFF34F8FFB6000BF00BFFDE712
:1011E0007B687B617B69002B0AD07B6900221A60D7
:1011F0007B690433184600F043FA7B6901221A77B1
:101200007B6918461837BD4680BD80B582B000AFF7
:10121000202004F01BFC78607B68002B0AD07B68E0
:1012200000221A607B680433184600F029FA7B68B4
:1012300000221A777B6818460837BD4680BD00003B
:1012400080B590B000AFF860B9607A603B60FB6831
:101250007B630023BB6300233B63FB68002B0BD144
:101260004FF0500383F31188BFF36F8FBFF34F8F9D
:101270003B6200BF00BFFDE7BB68B3F1807F0BD3CB
:101280004FF0500383F31188BFF36F8FBFF34F8F7D
:10129000FB6100BF00BFFDE7BB68002B0BD14FF027
:1012A000500383F31188BFF36F8FBFF34F8FBB6180
:1012B00000BF00BFFDE702F0BBFA0346002B02D1DE
:1012C000BB6C002B01D1012300E00023002B0BD1CC
:1012D0004FF0500383F31188BFF36F8FBFF34F8F2D
:1012E0007B6100BF00BFFDE701F034FD7B6B1B6835
:1012F000FB623A68B968F86A00F08CF9B862BB6AB8
:10130000002B0ED0FB6AFB630023BB647B68002BC1
:1013100028D07B6B1A68BB68DB431A407B6B1A6072
:1013200020E0BB6C002B04D1FB6AFB6301233B6311
:1013300018E07B68002B03D0BB6B43F08073BB636A
:101340003B68002B03D0BB6B43F08063BB637B6BBC
:10135000181DBA68BB6B1343BA6C194601F070FFD5
:101360000023FB6301F03CFD7862BB6C002B31D0A5
:101370007B6A002B07D11A4B4FF080521A60BFF3E3
:101380004F8FBFF36F8F02F0CDFBF863FB6B03F061
:101390000073002B1AD104F077FE7B6B1B68FB6394
:1013A0003A68B968F86B00F035F90346002B09D0AC
:1013B0007B68002B06D07B6B1A68BB68DB431A4046
:1013C0007B6B1A6001233B6304F090FEFB6B23F000
:1013D0007F43FB63FB6B18464037BD4680BD00BFB3
:1013E00004ED00E080B586B000AF786039607B68BE
:1013F0007B617B68002B0BD14FF0500383F3118886
:10140000BFF36F8FBFF34F8FFB6000BF00BFFDE7DF
:101410003B68B3F1807F0BD34FF0500383F3118807
:10142000BFF36F8FBFF34F8FBB6000BF00BFFDE7FF
:1014300004F02AFE7B691B683B617B691A683B6884
:10144000DB431A407B691A6004F050FE3B69184682
:101450001837BD4680BD000080B584B000AF78600D
:10146000396000233A687968044803F0EBF9F860C2
:10147000FB6818461037BD4680BD00BFFB1500084D
:1014800080B489B000AF78607B68FB61EFF31182B4
:101490004FF0500383F31188BFF36F8FBFF34F8F6B
:1014A000FA60BB60FB68BB61FB691B687B61BB6961
:1014B0003B613B6983F3118800BF7B691846243781
:1014C000BD465DF8047B704780B58EB000AF786094
:1014D000396000233B637B68BB620023FB627B684F
:1014E000002B0BD14FF0500383F31188BFF36F8FA4
:1014F000BFF34F8F3B6100BF00BFFDE73B68B3F117
:10150000807F0BD34FF0500383F31188BFF36F8FAD
:10151000BFF34F8FFB6000BF00BFFDE7BB6A043322
:101520007B627B6A08333B6201F014FC7B6ADB68F8
:101530007B63BB6A1A683B681A43BB6A1A603CE06B
:101540007B6B5B68FB617B6B1B68BB610023FB6291
:10155000BB6903F07F437B61BB6923F07F43BB61C1
:101560007B6903F08063002B08D1BB6A1A68BB69F2
:101570001340002B0BD00123FB6208E0BB6A1A6802
:10158000BB691340BA699A4201D10123FB62FB6A2D
:10159000002B10D07B6903F08073002B03D03A6BD3
:1015A000BB6913433B63BB6A1B6843F00073194676
:1015B000786B01F015FFFB697B637A6B3B6A9A429B
:1015C000BED1BB6A1A683B6BDB431A40BB6A1A6028
:1015D00001F006FCBB6A1B6818463837BD4680BD63
:1015E00080B582B000AF7860396039687868FFF7FD
:1015F0006BFF00BF0837BD4680BD80B582B000AF2D
:101600007860396039687868FFF7ECFE00BF08370A
:10161000BD4680BD80B487B000AFF860B9607A6025
:1016200000237B617B68002B07D1FA68BB681340FD
:10163000002B0AD001237B6107E0FA68BB681340E6
:10164000BA689A4201D101237B617B6918461C3735
:10165000BD465DF8047B704780B586B000AFF8608A
:10166000B9607A607B68BA68F968044803F0EAF800
:1016700078617B6918461837BD4680BDE1150008C2
:1016800080B483B000AF78607B6803F108027B68A8
:101690005A607B684FF0FF329A607B6803F1080262
:1016A0007B68DA607B6803F108027B681A617B68FB
:1016B00000221A6000BF0C37BD465DF8047B7047FE
:1016C00080B483B000AF78607B6800221A6100BFED
:1016D0000C37BD465DF8047B704780B485B000AF21
:1016E000786039607B685B68FB603B68FA685A60C9
:1016F000FB689A683B689A60FB689B683A685A6026
:10170000FB683A689A603B687A681A617B681B6874
:101710005A1C7B681A6000BF1437BD465DF8047B15
:10172000704780B485B000AF786039603B681B6853
:10173000BB60BB68B3F1FF3F03D17B681B69FB60F3
:101740000CE07B680833FB6002E0FB685B68FB60D1
:10175000FB685B681B68BA689A42F6D2FB685A68F5
:101760003B685A603B685B683A689A603B68FA6815
:101770009A60FB683A685A603B687A681A617B68CD
:101780001B685A1C7B681A6000BF1437BD465DF8A1
:10179000047B704780B485B000AF78607B681B69BC
:1017A000FB607B685B687A6892689A607B689B687C
:1017B0007A6852685A60FB685B687A689A4203D11B
:1017C0007B689A68FB685A607B6800221A61FB6834
:1017D0001B685A1EFB681A60FB681B6818461437A2
:1017E000BD465DF8047B704780B584B000AF78607B
:1017F00039607B68FB60FB68002B0BD14FF0500316
:1018000083F31188BFF36F8FBFF34F8FBB6000BFAF
:1018100000BFFDE704F038FCFB681A68FB68DB6B6F
:10182000F968096C01FB03F31A44FB689A60FB68D2
:1018300000229A63FB681A68FB685A60FB681A68A2
:10184000FB68DB6B013BF968096C01FB03F31A448D
:10185000FB68DA60FB68FF2283F84420FB68FF2204
:1018600083F845203B68002B14D1FB681B69002BD3
:101870001AD0FB681033184601F04CFD0346002BCC
:1018800012D00D4B4FF080521A60BFF34F8FBFF351
:101890006F8F09E0FB6810331846FFF7F1FEFB6815
:1018A00024331846FFF7ECFE04F020FC0123184611
:1018B0001037BD4680BD00BF04ED00E080B58EB09E
:1018C00002AFF860B9607A603B60FB68002B0BD117
:1018D0004FF0500383F31188BFF36F8FBFF34F8F27
:1018E000BB6200BF00BFFDE73B68002B0BD14FF090
:1018F000500383F31188BFF36F8FBFF34F8F7B6269
:1019000000BF00BFFDE77B68002B02D0BB68002B47
:1019100001D0012300E00023002B0BD14FF0500336
:1019200083F31188BFF36F8FBFF34F8F3B6200BF0C
:1019300000BFFDE77B68002B02D1BB68002B01D103
:10194000012300E00023002B0BD14FF0500383F361
:101950001188BFF36F8FBFF34F8FFB6100BF00BFD4
:10196000FDE750237B617B69502B0BD04FF0500378
:1019700083F31188BFF36F8FBFF34F8FBB6100BF3D
:1019800000BFFDE77B693B68FB62FB6A002B0DD063
:10199000FB6A012283F8462097F83820FB6A0093FF
:1019A00013467A68B968F86800F040F8FB6A184690
:1019B0003037BD4680BD80B58AB002AFF860B960EF
:1019C0001346FB71FB68002B0BD14FF0500383F3E0
:1019D0001188BFF36F8FBFF34F8F3B6100BF00BF14
:1019E000FDE7FB68BA6802FB03F3FB61FB69503358
:1019F000184604F02BF8B861BB69002B11D0BB6905
:101A00007B617B6950337B61BB69002283F8462090
:101A1000FA79BB69009313467A69B968F86800F0EF
:101A200005F8BB6918462037BD4680BD80B584B037
:101A300000AFF860B9607A60FB70BB68002B03D11F
:101A4000BB69BA691A6002E0BB697A681A60BB694F
:101A5000FA68DA63BB69BA681A640121B869FFF7EA
:101A6000C3FEBB69FA7883F84C2000BF1037BD462F
:101A700080BD80B58AB002AFF860B9607A60FB685B
:101A8000002B0BD14FF0500383F31188BFF36F8FFE
:101A9000BFF34F8FBB6100BF00BFFDE7BA68FB68B3
:101AA0009A420BD94FF0500383F31188BFF36F8F25
:101AB000BFF34F8F7B6100BF00BFFDE702230093A0
:101AC0007B6800220021F868FFF7F8FEF861FB69E7
:101AD000002B02D0FB69BA689A63FB69184620376D
:101AE000BD4680BD80B586B000AF786039607B6848
:101AF000002B0BD14FF0500383F31188BFF36F8F8E
:101B0000BFF34F8F3B6100BF00BFFDE73A687B68C2
:101B10009A420BD94FF0500383F31188BFF36F8FB4
:101B2000BFF34F8FFB6000BF00BFFDE70222002123
:101B30007868FFF740FF78617B69002B02D07B69F2
:101B40003A689A637B6918461837BD4680BD000025
:101B500080B58EB000AFF860B9607A603B6000235A
:101B60007B63FB683B633B6B002B0BD14FF0500357
:101B700083F31188BFF36F8FBFF34F8FBB6200BF3A
:101B800000BFFDE7BB68002B03D13B6B1B6C002B38
:101B900001D1012300E00023002B0BD14FF05003B3
:101BA00083F31188BFF36F8FBFF34F8F7B6200BF4A
:101BB00000BFFDE73B68022B03D13B6BDB6B012BC6
:101BC00001D1012300E00023002B0BD14FF0500383
:101BD00083F31188BFF36F8FBFF34F8F3B6200BF5A
:101BE00000BFFDE701F024FE0346002B02D17B6815
:101BF000002B01D1012300E00023002B0BD14FF07B
:101C0000500383F31188BFF36F8FBFF34F8FFB61D6
:101C100000BF00BFFDE704F037FA3B6B9A6B3B6BEC
:101C2000DB6B9A4202D33B68022B29D13A68B96830
:101C3000386B00F0ABFCF8623B6B5B6A002B10D09A
:101C40003B6B2433184601F065FB0346002B13D091
:101C50003F4B4FF080521A60BFF34F8FBFF36F8F2F
:101C60000AE0FB6A002B07D0394B4FF080521A6014
:101C7000BFF34F8FBFF36F8F04F038FA012363E097
:101C80007B68002B03D104F031FA00235CE07B6B0E
:101C9000002B06D107F11403184601F007FC0123BD
:101CA0007B6304F023FA01F055F804F0EDF93B6B87
:101CB00093F844305BB2B3F1FF3F03D13B6B00229A
:101CC00083F844203B6B93F845305BB2B3F1FF3FA0
:101CD00003D13B6B002283F8452004F007FA3A1D3C
:101CE00007F114031146184601F0F6FB0346002BDA
:101CF00024D1386B00F042FD0346002B18D03B6B1B
:101D000010337A681146184601F074FA386B00F007
:101D1000CDFC01F065F80346002B7FF47CAF0C4B43
:101D20004FF080521A60BFF34F8FBFF36F8F72E78F
:101D3000386B00F0BBFC01F053F86CE7386B00F037
:101D4000B5FC01F04DF8002318463837BD4680BD7C
:101D500004ED00E080B590B000AFF860B9607A6043
:101D60003B60FB68BB63BB6B002B0BD14FF0500398
:101D700083F31188BFF36F8FBFF34F8FBB6200BF38
:101D800000BFFDE7BB68002B03D1BB6B1B6C002BB6
:101D900001D1012300E00023002B0BD14FF05003B1
:101DA00083F31188BFF36F8FBFF34F8F7B6200BF48
:101DB00000BFFDE73B68022B03D1BB6BDB6B012B44
:101DC00001D1012300E00023002B0BD14FF0500381
:101DD00083F31188BFF36F8FBFF34F8F3B6200BF58
:101DE00000BFFDE704F014FBEFF311824FF0500346
:101DF00083F31188BFF36F8FBFF34F8FFA61BB611D
:101E0000FB697B63BB6B9A6BBB6BDB6B9A4202D348
:101E10003B68022B2FD1BB6B93F8453087F83330EA
:101E2000BB6B9B6BFB623A68B968B86B00F0AEFBAA
:101E300097F93330B3F1FF3F12D1BB6B5B6A002BD4
:101E400016D0BB6B2433184601F064FA0346002B0E
:101E50000ED07B68002B0BD07B6801221A6007E054
:101E600097F833300133DBB25AB2BB6B83F84520AD
:101E70000123FB6301E00023FB637B6B7B617B69D8
:101E800083F3118800BFFB6B18464037BD4680BD09
:101E900080B58EB000AF786039607B683B633B6B88
:101EA000002B0BD14FF0500383F31188BFF36F8FDA
:101EB000BFF34F8F3B6200BF00BFFDE73B6B1B6C66
:101EC000002B0BD04FF0500383F31188BFF36F8FBB
:101ED000BFF34F8FFB6100BF00BFFDE73B6B1B688B
:101EE000002B03D13B6B9B68002B01D1012300E049
:101EF0000023002B0BD14FF0500383F31188BFF365
:101F00006F8FBFF34F8FBB6100BF00BFFDE704F0D1
:101F10007FFAEFF311824FF0500383F31188BFF380
:101F20006F8FBFF34F8F7A613B617B69FB623B6BC5
:101F30009B6BBB623B6BDB6BBA6A9A422BD23B6BEF
:101F400093F8453087F82730BB6A5A1C3B6B9A637D
:101F500097F92730B3F1FF3F12D13B6B5B6A002B3F
:101F600016D03B6B2433184601F0D4F90346002BFE
:101F70000ED03B68002B0BD03B6801221A6007E0B3
:101F800097F827300133DBB25AB23B6B83F8452018
:101F900001237B6301E000237B63FB6AFB60FB683A
:101FA00083F3118800BF7B6B18463837BD4680BD70
:101FB00080B58CB000AFF860B9607A600023FB6236
:101FC000FB68BB62BB6A002B0BD14FF0500383F35D
:101FD0001188BFF36F8FBFF34F8F3B6200BF00BF0D
:101FE000FDE7BB68002B03D1BB6A1B6C002B01D142
:101FF000012300E00023002B0BD14FF0500383F3AB
:102000001188BFF36F8FBFF34F8FFB6100BF00BF1D
:10201000FDE701F00DFC0346002B02D17B68002B8D
:1020200001D1012300E00023002B0BD14FF050031E
:1020300083F31188BFF36F8FBFF34F8FBB6100BF76
:1020400000BFFDE704F020F8BB6A9B6B7B627B6AF4
:10205000002B1FD0B968B86A00F002FB7B6A5A1ED9
:10206000BB6A9A63BB6A1B69002B0FD0BB6A103333
:10207000184601F04FF90346002B07D03C4B4FF0B8
:1020800080521A60BFF34F8FBFF36F8F04F02EF8AA
:10209000012369E07B68002B03D104F027F80023BB
:1020A00062E0FB6A002B06D107F11003184601F02D
:1020B000FDF90123FB6204F019F800F04BFE03F078
:1020C000E3FFBB6A93F844305BB2B3F1FF3F03D147
:1020D000BB6A002283F84420BB6A93F845305BB2A8
:1020E000B3F1FF3F03D1BB6A002283F8452003F020
:1020F000FDFF3A1D07F110031146184601F0ECF9F7
:102100000346002B23D1B86A00F022FB0346002BC4
:1021100017D0BB6A24337A681146184601F06AF872
:10212000B86A00F0C3FA00F05BFE0346002B89D1C9
:102130000F4B4FF080521A60BFF34F8FBFF36F8F7A
:1021400080E7B86A00F0B2FA00F04AFE7AE7B86AAF
:1021500000F0ACFA00F044FEB86A00F0F9FA034669
:10216000002B3FF46FAF002318463037BD4680BDCB
:1021700004ED00E080B58EB000AF786039600023D8
:102180007B637B68FB6200233B63FB6A002B0BD104
:102190004FF0500383F31188BFF36F8FBFF34F8F5E
:1021A0003B6200BF00BFFDE7FB6A1B6C002B0BD03E
:1021B0004FF0500383F31188BFF36F8FBFF34F8F3E
:1021C000FB6100BF00BFFDE701F032FB0346002BBF
:1021D00002D13B68002B01D1012300E00023002B3A
:1021E0000BD14FF0500383F31188BFF36F8FBFF310
:1021F0004F8FBB6100BF00BFFDE703F045FFFB6AE7
:102200009B6BBB62BB6A002B24D0BB6A5A1EFB6A65
:102210009A63FB6A1B68002B04D101F09BFC024609
:10222000FB6A9A60FB6A1B69002B0FD0FB6A1033B4
:10223000184601F06FF80346002B07D0544B4FF0BF
:1022400080521A60BFF34F8FBFF36F8F03F04EFFC2
:10225000012398E03B68002B12D13B6B002B0BD085
:102260004FF0500383F31188BFF36F8FBFF34F8F8D
:102270007B6100BF00BFFDE703F038FF002382E071
:102280007B6B002B06D107F10C03184601F00EF909
:1022900001237B6303F02AFF00F05CFD03F0F4FEF2
:1022A000FB6A93F844305BB2B3F1FF3F03D1FB6AA2
:1022B000002283F84420FB6A93F845305BB2B3F107
:1022C000FF3F03D1FB6A002283F8452003F00EFF95
:1022D0003A4607F10C031146184601F0FDF8034693
:1022E000002B32D1F86A00F033FA0346002B26D0D7
:1022F000FB6A1B68002B09D103F0C6FEFB6A9B68D2
:10230000184601F0B3FA386303F0F0FEFB6A243399
:102310003A681146184600F06DFFF86A00F0C6F9F9
:1023200000F05EFD0346002B7FF467AF184B4FF0C3
:1023300080521A60BFF34F8FBFF36F8F5DE7F86A6B
:1023400000F0B4F900F04CFD57E7F86A00F0AEF980
:1023500000F046FDF86A00F0FBF90346002B3FF45D
:102360004CAF3B6B002B0DD003F08EFEF86A00F0F3
:10237000F5F87862FB6A9B68796A184601F04EFBB3
:1023800003F0B4FE002318463837BD4680BD00BFB9
:1023900004ED00E080B58EB000AFF860B9607A60FF
:1023A000FB683B633B6B002B0BD14FF0500383F377
:1023B0001188BFF36F8FBFF34F8F3B6200BF00BF29
:1023C000FDE7BB68002B03D13B6B1B6C002B01D1DD
:1023D000012300E00023002B0BD14FF0500383F3C7
:1023E0001188BFF36F8FBFF34F8FFB6100BF00BF3A
:1023F000FDE704F00DF8EFF311824FF0500383F383
:102400001188BFF36F8FBFF34F8FBA617B61BB69D8
:10241000FB623B6B9B6BBB62BB6A002B2FD03B6BA1
:1024200093F8443087F82730B968386B00F018F912
:10243000BB6A5A1E3B6B9A6397F92730B3F1FF3F93
:1024400012D13B6B1B69002B16D03B6B1033184627
:1024500000F060FF0346002B0ED07B68002B0BD0F2
:102460007B6801221A6007E097F827300133DBB25E
:102470005AB23B6B83F8442001237B6301E00023C5
:102480007B63FB6A3B613B6983F3118800BF7B6B15
:1024900018463837BD4680BD80B584B000AF78603F
:1024A0007B68002B0BD14FF0500383F31188BFF3EF
:1024B0006F8FBFF34F8FBB6000BF00BFFDE703F01E
:1024C000E3FD7B689B6BFB6003F010FEFB68184626
:1024D0001037BD4680BD80B487B000AF78607B68A0
:1024E0007B617B69002B0BD14FF0500383F3118884
:1024F000BFF36F8FBFF34F8FFB6000BF00BFFDE7DF
:102500007B699B6B3B613B6918461C37BD465DF898
:10251000047B704780B584B000AF78607B68FB6057
:10252000FB68002B0BD14FF0500383F31188BFF3EE
:102530006F8FBFF34F8FBB6000BF00BFFDE7F86830
:1025400000F05EF9FB6893F84630002B02D1F86882
:1025500003F04AFB00BF1037BD4680BD80B485B094
:1025600000AF78607B685B6A002B06D07B681B6BD2
:102570001B68C3F13803FB6001E00023FB60FB68CC
:1025800018461437BD465DF8047B704780B586B0A9
:1025900000AFF860B9607A6000237B61FB689B6BD9
:1025A0003B61FB681B6C002B0DD1FB681B68002B8B
:1025B0004DD1FB689B68184601F0C0F97861FB6853
:1025C00000229A6043E07B68002B19D1FB685868B1
:1025D000FB681B6C1A46B9680EF097FFFB685A68D7
:1025E000FB681B6C1A44FB685A60FB685A68FB68FE
:1025F0009B689A422BD3FB681A68FB685A6026E0F6
:10260000FB68D868FB681B6C1A46B9680EF07DFF42
:10261000FB68DA68FB681B6C5B421A44FB68DA6093
:10262000FB68DA68FB681B689A4207D2FB689A6805
:10263000FB681B6C5B421A44FB68DA607B68022B08
:1026400005D13B69002B02D03B69013B3B613B69F3
:102650005A1CFB689A637B6918461837BD4680BDD3
:1026600080B582B000AF786039607B681B6C002B4E
:1026700018D07B68DA687B681B6C1A447B68DA6068
:102680007B68DA687B689B689A4203D37B681A6828
:102690007B68DA607B68D9687B681B6C1A4638688F
:1026A0000EF033FF00BF0837BD4680BD80B584B053
:1026B00000AF786003F0E8FC7B6893F84530FB736B
:1026C00011E07B685B6A002B12D07B6824331846CC
:1026D00000F020FE0346002B01D000F061FFFB7BE1
:1026E000013BDBB2FB7397F90F30002BE9DC00E014
:1026F00000BF7B68FF2283F8452003F0F7FC03F05E
:10270000C3FC7B6893F84430BB7311E07B681B69A2
:10271000002B12D07B681033184600F0FBFD0346F7
:10272000002B01D000F03CFFBB7B013BDBB2BB7355
:1027300097F90E30002BE9DC00E000BF7B68FF2238
:1027400083F8442003F0D2FC00BF1037BD4680BDA3
:1027500080B584B000AF786003F096FC7B689B6B1B
:10276000002B02D10123FB6001E00023FB6003F09A
:10277000BDFCFB6818461037BD4680BD80B584B0EF
:1027800000AF786003F080FC7B689A6B7B68DB6B42
:102790009A4202D10123FB6001E00023FB6003F0B9
:1027A000A5FCFB6818461037BD4680BD80B485B0D7
:1027B00000AF786039600023FB6014E00F4AFB68CB
:1027C00052F83330002B0BD10C49FB683A6841F8C2
:1027D00033200A4AFB68DB0013447A685A6006E03B
:1027E000FB680133FB60FB68072BE7D900BF00BF24
:1027F0001437BD465DF8047B704700BFD83A00200F
:1028000080B485B000AF78600023FB6016E0104A0A
:10281000FB68DB0013445B687A689A420BD10C4A70
:10282000FB68002142F83310094AFB68DB001344BF
:1028300000225A6006E0FB680133FB60FB68072B4F
:10284000E5D900BF00BF1437BD465DF8047B704773
:10285000D83A002080B586B000AFF860B9607A60E1
:10286000FB687B6103F010FC7B6993F844305BB23A
:10287000B3F1FF3F03D17B69002283F844207B69D9
:1028800093F845305BB2B3F1FF3F03D17B6900227F
:1028900083F8452003F02AFC7B699B6B002B06D153
:1028A0007B6924337A68B968184600F007FD7869B7
:1028B000FFF7FCFE00BF1837BD4680BD80B58EB067
:1028C00004AFF860B9607A603B607B6B002B0BD182
:1028D0004FF0500383F31188BFF36F8FBFF34F8F17
:1028E0003B6200BF00BFFDE7BB6B002B0BD14FF07D
:1028F000500383F31188BFF36F8FBFF34F8FFB61DA
:1029000000BF00BFFDE764233B613B69642B0BD034
:102910004FF0500383F31188BFF36F8FBFF34F8FD6
:10292000BB6100BF00BFFDE73B69BB6B002B1ED046
:102930007B6B002B1BD0BB6B7B627B6A7A6B1A6351
:102940007B6A022283F86120002303937B6A02934F
:1029500007F1140301933B6B00933B687A68B968F5
:10296000F86800F050F8786A00F0E4F801E000231D
:102970007B617B6918462837BD4680BD80B58CB029
:1029800004AFF860B9603B601346FB80FB889B0096
:10299000184603F05BF878617B69002B0ED0642049
:1029A00003F054F8F861FB69002B03D0FB697A69E6
:1029B0001A6305E0786903F017F901E00023FB6171
:1029C000FB69002B17D0FB69002283F86120FA888D
:1029D00000230393FB690293FB6A0193BB6A009394
:1029E0003B68B968F86800F00EF8F86900F0A2F8E2
:1029F0000123BB6102E04FF0FF33BB61BB691846A6
:102A00002037BD4680BD80B588B000AFF860B960A2
:102A10007A603B603B6B186B7B689B001A46A52174
:102A20000EF089FC3B6B1A6B7B6803F18043013B22
:102A30009B001344BB61BB6923F00703BB61BB6907
:102A400003F00703002B0BD04FF0500383F31188E2
:102A5000BFF36F8FBFF34F8F7B6100BF00BFFDE7F8
:102A60003B6BBA695A64BB68002B1FD00023FB6123
:102A700012E0BA68FB69134419783A6BFB69134496
:102A800034330A461A70BA68FB6913441B78002B6A
:102A900006D0FB690133FB61FB690F2BE9D900E02C
:102AA00000BF3B6B002283F8432003E03B6B002216
:102AB00083F83420BB6A372B01D93723BB623B6BC9
:102AC000BA6ADA623B6BBA6A1A653B6B00225A65D6
:102AD0003B6B04331846FEF7F3FD3B6B1833184687
:102AE000FEF7EEFD3B6B3A6B1A61BB6AC3F138022D
:102AF0003B6B9A613B6B3A6B5A623B6B00229A6567
:102B00003B6B0022DA653B6B002283F860203A6859
:102B1000F968B86903F088F902463B6B1A60FB6AF2
:102B2000002B02D0FB6A3A6B1A6000BF2037BD460B
:102B300080BD000080B582B000AF786003F0A4FAD9
:102B40002D4B1B6801332C4A13602C4B1B68002B48
:102B500009D12A4A7B681360274B1B68012B10D1CF
:102B600000F098FD0DE0264B1B68002B09D1234B8C
:102B70001B68DA6A7B68DB6A9A4202D81F4A7B6864
:102B80001360204B1B6801331E4A13601D4B1A68EB
:102B90007B689A647B68DA6A1B4B1B689A4203D98C
:102BA0007B68DB6A184A13607B68DA6A13469B000D
:102BB00013449B00154A1A447B6804331946104697
:102BC000FEF78BFD03F092FA0D4B1B68002B0ED025
:102BD0000A4B1B68DA6A7B68DB6A9A4207D20C4BA5
:102BE0004FF080521A60BFF34F8FBFF36F8F00BF5B
:102BF0000837BD4680BD00BFEC3F0020183B0020D9
:102C0000F83F002008400020F43F00201C3B00203B
:102C100004ED00E080B584B000AF78600023FB6075
:102C20007B68002B18D0144B1B68002B0BD04FF087
:102C3000500383F31188BFF36F8FBFF34F8FBB60D7
:102C400000BF00BFFDE700F085F80021786801F0C3
:102C50008BF900F0C5F8F860FB68002B07D1074B33
:102C60004FF080521A60BFF34F8FBFF36F8F00BFDA
:102C70001037BD4680BD00BF1440002004ED00E0C9
:102C800080B58AB004AF0023BB6000237B603A4666
:102C9000391D07F10803184602F0A4FE39687B6865
:102CA000BA68029201930023009300230A46234945
:102CB0002348FFF703FE0346224A1360214B1B689B
:102CC000002B02D001237B6101E000237B617B6943
:102CD000012B02D101F09CF978617B69012B18D19D
:102CE0004FF0500383F31188BFF36F8FBFF34F8F03
:102CF0003B6100BF144B4FF0FF321A60134B0122AF
:102D00001A60134B00221A60FDF702FB03F018F95A
:102D10000FE07B69B3F1FF3F0BD14FF0500383F31A
:102D20001188BFF36F8FBFF34F8FFB6000BF00BFF1
:102D3000FDE700BF1837BD4680BD00BF442901082C
:102D4000B9350008104000200C400020F83F00205A
:102D5000F03F002080B400AF044B1B680133034AEE
:102D6000136000BFBD465DF8047B7047144000202F
:102D700080B483B000AF00233B60144B1B68002B72
:102D800001D001233B60124B1B68DB6A002B02D091
:102D900000237B6012E00F4B1B68012B02D900233C
:102DA0007B600BE03B68002B02D000237B6005E0DA
:102DB000094B1A68094B1B68D31A7B607B6818465D
:102DC0000C37BD465DF8047B704700BFF43F002020
:102DD000183B00201C3B00200C400020F03F00204E
:102DE00080B584B000AF0023FB600023BB60424B82
:102DF0001B68002B0BD14FF0500383F31188BFF3F6
:102E00006F8FBFF34F8F3B6000BF00BFFDE703F044
:102E10003BF9394B1B68013B374A1360364B1B6843
:102E2000002B62D1354B1B68002B5ED02FE0344B5A
:102E3000DB68DB68FB60FB6818331846FEF7AAFC0A
:102E4000FB6804331846FEF7A5FCFB68DA6A2D4BD5
:102E50001B689A4203D9FB68DB6A2A4A1360FB6845
:102E6000DA6A13469B0013449B00274A1A44FB6806
:102E7000043319461046FEF730FCFB68DA6A234B30
:102E80001B68DB6A9A4202D3214B01221A601C4B59
:102E90001B68002BCBD1FB68002B01D000F098FC05
:102EA0001C4B1B687B607B68002B10D000F06EF819
:102EB0000346002B02D0164B01221A607B68013BAF
:102EC0007B607B68002BF1D1124B00221A60104B03
:102ED0001B68002B09D00123BB600F4B4FF08052C1
:102EE0001A60BFF34F8FBFF36F8F03F0FFF8BB681B
:102EF00018461037BD4680BD14400020EC3F00202E
:102F0000AC3F0020F43F00201C3B0020183B002079
:102F100000400020FC3F002004ED00E080B483B0BE
:102F200000AF054B1B687B607B6818460C37BD46BD
:102F30005DF8047B704700BFF03F002080B485B08F
:102F400000AF78600F4B1A687B681A440E4B1B6801
:102F50009A420BD94FF0500383F31188BFF36F8F60
:102F6000BFF34F8FFB6000BF00BFFDE7054B1A6842
:102F70007B681344034A136000BF1437BD465DF8F5
:102F8000047B7047F03F00200C40002080B586B0E5
:102F900000AF00237B614F4B1B68002B40F09080FB
:102FA0004D4B1B6801333B614B4A3B6913603B69E6
:102FB000002B21D1494B1B681B68002B0BD04FF015
:102FC000500383F31188BFF36F8FBFF34F8F3B60C4
:102FD00000BF00BFFDE7414B1B68FB60404B1B6817
:102FE0003E4A13603E4AFB6813603E4B1B68013348
:102FF0003C4A136000F0ECFB3B4B1B683A699A4279
:1030000049D3364B1B681B68002B04D1364B4FF05D
:10301000FF321A603FE0314B1B68DB68DB68BB6046
:10302000BB685B687B603A697B689A4203D22E4A30
:103030007B6813602FE0BB6804331846FEF7AAFBD9
:10304000BB689B6A002B04D0BB6818331846FEF798
:10305000A1FBBB68DA6A254B1B689A4203D9BB689F
:10306000DB6A224A1360BB68DA6A13469B0013448A
:103070009B001F4A1A44BB68043319461046FEF7EA
:103080002CFBBB68DA6A1B4B1B68DB6A9A42B8D31D
:1030900001237B61B5E7174B1B68DA6A14491346B5
:1030A0009B0013449B000B441B68012B01D9012397
:1030B0007B61114B1B68002B07D001237B6104E06F
:1030C0000E4B1B6801330D4A13607B691846183795
:1030D000BD4680BD14400020F03F0020A43F0020EA
:1030E000A83F0020044000200C400020F43F0020B6
:1030F0001C3B0020183B002000400020FC3F00202B
:1031000080B584B000AF344B1B68002B03D0334B29
:1031100001221A605CE0314B00221A60FDF702F9CF
:1031200003461A462E4B1A602D4B1A682D4B1B680E
:103130009A4209D92C4B1B68996D294A1068294A73
:103140001268821A0A449A65254B1B68254A136047
:10315000264B1B68FB6011E0FB68002B0BD14FF086
:10316000500383F31188BFF36F8FBFF34F8F7B60E2
:1031700000BF00BFFDE7FB68013BFB601C49FA682C
:1031800013469B0013449B000B441B68002BE3D0A9
:10319000FA6813469B0013449B00154A1344BB6016
:1031A000BB685B685A68BB685A60BB685A68BB6892
:1031B00008339A4204D1BB685B685A68BB685A609E
:1031C000BB685B68DB68084A1360084AFB681360E9
:1031D00000BF1037BD4680BD1440002000400020D5
:1031E0001C40002018400020183B0020F43F002025
:1031F0001C3B002080B584B000AF786039607B68EC
:10320000002B0BD14FF0500383F31188BFF36F8F66
:10321000BFF34F8FFB6000BF00BFFDE7074B1B688C
:10322000183319467868FEF77CFA0121386800F0F7
:103230009BFE00BF1037BD4680BD00BF183B00207D
:1032400080B586B000AFF860B9607A60FB68002B8B
:103250000BD14FF0500383F31188BFF36F8FBFF38F
:103260004F8F7B6100BF00BFFDE7124B1B68002B37
:103270000BD14FF0500383F31188BFF36F8FBFF36F
:103280004F8F3B6100BF00BFFDE70B4B1B68BA6867
:1032900042F000429A61084B1B6818331946F868DF
:1032A000FEF71BFA0121786800F05EFE00BF1837B8
:1032B000BD4680BD14400020183B002080B586B07C
:1032C00000AFF860B9607A60FB68002B0BD14FF05B
:1032D000500383F31188BFF36F8FBFF34F8F7B6170
:1032E00000BF00BFFDE70A4B1B6818331946F8689A
:1032F000FEF7F3F97B68002B02D04FF0FF33BB6081
:103300007968B86800F030FE00BF1837BD4680BD50
:10331000183B002080B586B000AF78607B68DB6822
:10332000DB683B613B69002B0BD14FF0500383F30B
:103330001188BFF36F8FBFF34F8FFB6000BF00BFDB
:10334000FDE73B6918331846FEF724FA1E4B1B684D
:10335000002B1FD13B6904331846FEF71BFA3B696B
:10336000DA6A1A4B1B689A4203D93B69DB6A174A2F
:1033700013603B69DA6A13469B0013449B00144AAE
:103380001A443B69043319461046FEF7A6F900F0CB
:103390001FFA05E03B69183319460E48FEF79DF900
:1033A0003B69DA6A0C4B1B68DB6A9A4205D9012338
:1033B0007B610A4B01221A6001E000237B617B697B
:1033C00018461837BD4680BD14400020F43F002049
:1033D0001C3B0020AC3F0020183B00200040002098
:1033E00080B586B000AF786039602B4B1B68002B2E
:1033F0000BD14FF0500383F31188BFF36F8FBFF3EE
:103400004F8F3B6100BF00BFFDE73B6843F00042C8
:103410007B681A607B68DB687B617B69002B0BD162
:103420004FF0500383F31188BFF36F8FBFF34F8FBB
:10343000FB6000BF00BFFDE77868FEF7ABF900F066
:10344000C7F97B6904331846FEF7A4F97B69DA6A89
:10345000124B1B689A4203D97B69DB6A0F4A1360DF
:103460007B69DA6A13469B0013449B000C4A1A449A
:103470007B69043319461046FEF72FF97B69DA6A37
:10348000084B1B68DB6A9A4202D9074B01221A607B
:1034900000BF1837BD4680BD14400020F43F002017
:1034A0001C3B0020183B00200040002080B483B06B
:1034B00000AF7860064B1A687B681A60054B1A6883
:1034C0007B685A6000BF0C37BD465DF8047B7047CF
:1034D00004400020F03F002080B588B000AF786045
:1034E00039607B68002B0BD14FF0500383F31188B8
:1034F000BFF36F8FBFF34F8F3B6100BF00BFFDE78E
:103500003B68002B0BD14FF0500383F31188BFF3BE
:103510006F8FBFF34F8FFB6000BF00BFFDE702F06E
:10352000B3FD1D4B1B68BB617B685B68BA69D31A2E
:103530007B613B681B68B3F1FF3F02D10023FB6155
:1035400023E07B681A68154B1B689A4207D07B689A
:103550005B68BA699A4202D30123FB6115E03B68BC
:103560001B687A699A420BD23B681A687B69D21A47
:103570003B681A607868FFF799FF0023FB6104E05D
:103580003B6800221A600123FB6102F0AFFDFB697A
:1035900018462037BD4680BDF03F00200440002083
:1035A00080B400AF034B01221A6000BFBD465DF836
:1035B000047B70470040002080B584B000AF786085
:1035C00000F0A8F8184B1B68012B07D9174B4FF0D8
:1035D00080521A60BFF34F8FBFF36F8FFFF7C8FBA6
:1035E000F860FB68012BEBD9FFF7B4FB104B1A68AE
:1035F000104B1B689A420BD24FF0500383F3118893
:10360000BFF36F8FBFF34F8FBB6000BF00BFFDE7FD
:10361000FFF7AEFBF860FB68012B02D9F86802F0F7
:10362000E5FDFFF7DDFBCBE71C3B002004ED00E0F0
:103630000C400020F03F002080B483B000AF012395
:103640003B600123FB710F4B1B68002B02D0002352
:10365000FB7110E00C4B1B68002B02D00023FB71A8
:1036600009E00A4B1A680A4B19683B68CB1A9A4260
:1036700001D10223FB71FB7918460C37BD465DF87A
:10368000047B7047AC3F002000400020D83F002062
:10369000EC3F002080B582B000AF00237B600CE0DF
:1036A0007A6813469B0013449B00124A1344184641
:1036B000FDF7E6FF7B6801337B607B68372BEFD932
:1036C0000D48FDF7DDFF0D48FDF7DAFF0C48FDF76B
:1036D000D7FF0C48FDF7D4FF0B48FDF7D1FF0B4B8C
:1036E000054A1A600A4B054A1A6000BF0837BD46F2
:1036F00080BD00BF1C3B00207C3F0020903F00208D
:10370000AC3F0020C03F0020D83F0020A43F002055
:10371000A83F002080B582B000AF19E002F0B4FCF1
:10372000104BDB68DB687B607B6804331846FEF770
:1037300031F80D4B1B68013B0B4A13600B4B1B68A8
:10374000013B0A4A136002F0D1FC786800F010F8DF
:10375000064B1B68002BE1D100BF00BF0837BD46F8
:1037600080BD00BFC03F0020EC3F0020D43F0020C0
:1037700080B584B000AF78607B6893F86130002B2F
:1037800008D17B681B6B184602F02EFA786802F0AD
:103790002BFA19E07B6893F86130012B03D178682C
:1037A00002F022FA10E07B6893F86130022B0BD014
:1037B0004FF0500383F31188BFF36F8FBFF34F8F28
:1037C000FB6000BF00BFFDE700BF1037BD4680BDF6
:1037D00080B483B000AF0C4B1B681B68002B04D176
:1037E0000A4B4FF0FF321A6008E0074B1B68DB689A
:1037F000DB687B607B685B68044A136000BF0C3742
:10380000BD465DF8047B7047A43F00200C400020BB
:1038100080B483B000AF054B1B687B607B681846A3
:103820000C37BD465DF8047B704700BF183B002095
:1038300080B483B000AF0B4B1B68002B02D1012377
:103840007B6008E0084B1B68002B02D102237B60E1
:1038500001E000237B607B6818460C37BD465DF8AD
:10386000047B7047F83F00201440002080B584B0EE
:1038700000AF78607B68BB600023FB607B68002B37
:1038800051D0BB68DA6A2A4B1B68DB6A9A4241D284
:10389000BB689B69002B06DB254B1B68DB6AC3F109
:1038A0003802BB689A61BB685969BB68DA6A13461B
:1038B0009B0013449B001F4A1344994222D1BB68CA
:1038C00004331846FDF766FF194B1B68DA6ABB68BC
:1038D000DA62BB68DA6A184B1B689A4203D9BB6884
:1038E000DB6A154A1360BB68DA6A13469B0013440F
:1038F0009B00104A1A44BB68043319461046FDF772
:10390000ECFE04E00A4B1B68DA6ABB68DA6201234A
:10391000FB6008E0BB681A6D054B1B68DB6A9A42C6
:1039200001D20123FB60FB6818461037BD4680BDFD
:10393000183B00201C3B0020F43F002080B586B0DF
:1039400000AF78607B683B6100237B617B68002B64
:1039500058D02F4B1B683A699A420BD04FF0500356
:1039600083F31188BFF36F8FBFF34F8FFB6000BFEE
:1039700000BFFDE73B695B6D002B0BD14FF050039F
:1039800083F31188BFF36F8FBFF34F8FBB6000BF0E
:1039900000BFFDE73B695B6D5A1E3B695A653B6999
:1039A000DA6A3B691B6D9A422CD03B695B6D002B38
:1039B00028D13B6904331846FDF7ECFE3B691A6DCC
:1039C0003B69DA623B69DB6AC3F138023B699A61A1
:1039D0003B69DA6A0F4B1B689A4203D93B69DB6A81
:1039E0000C4A13603B69DA6A13469B0013449B0040
:1039F000094A1A443B69043319461046FDF76DFE27
:103A000001237B617B6918461837BD4680BD00BF26
:103A1000183B0020F43F00201C3B002080B588B0FC
:103A200000AF786039607B68BB6101237B617B6894
:103A3000002B6CD0BB695B6D002B0BD14FF050039A
:103A400083F31188BFF36F8FBFF34F8FFB6000BF0D
:103A500000BFFDE7BB691B6D3A689A4202D93B681B
:103A6000FB6102E0BB691B6DFB61BB69DB6AFA6944
:103A70009A424CD0BB695B6D7A699A4247D1264B1A
:103A80001B68BA699A420BD14FF0500383F3118837
:103A9000BFF36F8FBFF34F8FBB6000BF00BFFDE769
:103AA000BB69DB6A3B61BB69FA69DA62BB699B6926
:103AB000002B04DBFB69C3F13802BB699A61BB6967
:103AC00059693A6913469B0013449B00134A1344F7
:103AD00099421CD1BB6904331846FDF75BFEBB69F4
:103AE000DA6A0F4B1B689A4203D9BB69DB6A0C4A3E
:103AF0001360BB69DA6A13469B0013449B00074AB4
:103B00001A44BB69043319461046FDF7E6FD00BFB1
:103B10002037BD4680BD00BF183B00201C3B002065
:103B2000F43F002080B483B000AF094B1B689B6951
:103B30007B60074B1B68DA6A054B1B68C2F13802D1
:103B40009A617B6818460C37BD465DF8047B704768
:103B5000183B002080B400AF074B1B68002B04D03B
:103B6000054B1B685A6D01325A65034B1B6818469A
:103B7000BD465DF8047B7047183B002080B586B0D9
:103B800000AFF860B9607A603B6002F07DFA264BC6
:103B90001B6893F86030DBB2022B1AD0224B1B68F3
:103BA000D96DFA68D2430A40DA651F4B1B680122BF
:103BB00083F860203B68002B0BD00121386800F0AF
:103BC000D3F91A4B4FF080521A60BFF34F8FBFF3F7
:103BD0006F8F02F08BFA02F057FA7B68002B04D04B
:103BE000114B1B68DA6D7B681A600F4B1B6893F8EA
:103BF0006030DBB2022B02D000237B6108E00A4B6D
:103C00001B68D96DBA68D2430A40DA6501237B612B
:103C1000054B1B68002283F8602002F067FA7B697D
:103C200018461837BD4680BD183B002004ED00E063
:103C300080B58AB000AFF860B9603B601346FB7195
:103C400001237B62FB68002B0BD14FF0500383F301
:103C50001188BFF36F8FBFF34F8FBB6100BF00BFF1
:103C6000FDE7FB683B6202F00FFA3B68002B03D0D4
:103C70003B6ADA6D3B681A603B6A93F86030FB7709
:103C80003B6A022283F86020FB79042B27D801A22B
:103C900052F823F0013D0008A93C0008B73C000899
:103CA000C33C0008CB3C00083B6ADA6DBB681A4392
:103CB0003B6ADA6527E03B6ADB6D5A1C3B6ADA65D2
:103CC00021E03B6ABA68DA651DE0FB7F022B03D076
:103CD0003B6ABA68DA6516E000237B6213E03B6A50
:103CE000DB6DB3F1FF3F0DD04FF0500383F311882C
:103CF000BFF36F8FBFF34F8F7B6100BF00BFFDE746
:103D000000BF00E000BFFB7F012B3DD13B6A0433C5
:103D10001846FDF73FFD3B6ADA6A1F4B1B689A4263
:103D200003D93B6ADB6A1C4A13603B6ADA6A1346B2
:103D30009B0013449B00194A1A443B6A04331946FA
:103D40001046FDF7CAFC3B6A9B6A002B0BD04FF074
:103D5000500383F31188BFF36F8FBFF34F8F3B6125
:103D600000BF00BFFDE7FFF733FD3B6ADA6A0C4B8B
:103D70001B68DB6A9A4207D90A4B4FF080521A60DF
:103D8000BFF34F8FBFF36F8F02F0B0F97B6A184615
:103D90002837BD4680BD00BFF43F00201C3B0020FB
:103DA000183B002004ED00E080B58EB000AFF86055
:103DB000B9603B601346FB7101237B63FB68002BFA
:103DC0000BD14FF0500383F31188BFF36F8FBFF314
:103DD0004F8F7B6200BF00BFFDE702F019FBFB685D
:103DE0003B63EFF311824FF0500383F31188BFF36D
:103DF0006F8FBFF34F8F3A62FB613B6AFB623B6898
:103E0000002B03D03B6BDA6D3B681A603B6B93F879
:103E1000603087F82B303B6B022283F86020FB79FF
:103E2000042B29D801A252F823F000BF9B3E0008C2
:103E3000413E00084F3E00085B3E0008633E00081C
:103E40003B6BDA6DBB681A433B6BDA6528E03B6B72
:103E5000DB6D5A1C3B6BDA6522E03B6BBA68DA65B6
:103E60001EE097F82B30022B03D03B6BBA68DA6563
:103E700016E000237B6313E03B6BDB6DB3F1FF3F88
:103E80000DD04FF0500383F31188BFF36F8FBFF352
:103E90004F8FBB6100BF00BFFDE700BF00E000BF68
:103EA00097F82B30012B47D13B6B9B6A002B0BD033
:103EB0004FF0500383F31188BFF36F8FBFF34F8F21
:103EC0007B6100BF00BFFDE7214B1B68002B1DD1AC
:103ED0003B6B04331846FDF75DFC3B6BDA6A1D4B08
:103EE0001B689A4203D93B6BDB6A1A4A13603B6B2F
:103EF000DA6A13469B0013449B00174A1A443B6B33
:103F0000043319461046FDF7E8FB05E03B6B183318
:103F100019461248FDF7E1FB3B6BDA6A104B1B6850
:103F2000DB6A9A4208D93B6C002B02D03B6C012221
:103F30001A600C4B01221A60FB6A3B613B6983F3F8
:103F4000118800BF7B6B18463837BD4680BD00BF67
:103F500014400020F43F00201C3B0020AC3F002018
:103F6000183B00200040002080B584B000AF78608E
:103F70003960214B1B68FB60204B1B6804331846DB
:103F8000FDF708FC7B68B3F1FF3F0AD13B68002BCB
:103F900007D01A4B1B68043319461948FDF79DFBDF
:103FA00026E0FA687B681344BB60144B1B68BA6850
:103FB0005A60BA68FB689A4209D2124B1A680F4BD2
:103FC0001B68043319461046FDF7ABFB10E00E4B9F
:103FD0001A680A4B1B68043319461046FDF7A1FB0B
:103FE0000A4B1B68BA689A4202D2084ABB6813603F
:103FF00000BF1037BD4680BDF03F0020183B0020B9
:10400000D83F0020A83F0020A43F00200C40002003
:1040100080B58AB004AF00237B6100F0B1FB1D4B7B
:104020001B68002B21D00023FB600023BB603A1DDE
:1040300007F1080107F10C03184601F0EDFC79685F
:10404000BB68FA68029201930223009300230A4698
:1040500011491248FEF732FC0346114A1360104B17
:104060001B68002B01D001237B617B69002B0BD1E6
:104070004FF0500383F31188BFF36F8FBFF34F8F5F
:104080003B6100BF00BFFDE77B6918461837BD469E
:1040900080BD00BF504000204C2901081943000892
:1040A0005440002080B588B002AFF860B9607A60F3
:1040B0003B602C2001F0CAFC78617B69002B0DD09D
:1040C0007B69002283F828207B6901933B6A009377
:1040D0003B687A68B968F86800F045F87B6918466B
:1040E0001837BD4680BD80B58AB002AFF860B960B0
:1040F0007A603B602C233B613B692C2B0BD04FF04B
:10410000500383F31188BFF36F8FBFF34F8FBB61F1
:1041100000BF00BFFDE73B69FB6A002B0BD14FF0EE
:10412000500383F31188BFF36F8FBFF34F8F7B6111
:1041300000BF00BFFDE7FB6AFB61FB69002B0DD0F0
:10414000FB69022283F82820FB690193BB6A009374
:104150003B687A68B968F86800F005F8FB691846AA
:104160002037BD4680BD80B586B000AFF860B9602D
:104170007A603B60BB68002B0BD14FF0500383F398
:104180001188BFF36F8FBFF34F8F7B6100BF00BFFC
:10419000FDE77B6A002B1ED000F0F2FA7B6AFA681A
:1041A0001A607B6ABA689A617B6A3A68DA617B6AEC
:1041B0003A6A1A627B6A04331846FDF781FA7B6813
:1041C000002B08D07B6A93F8283043F00403DAB25E
:1041D0007B6A83F8282000BF1837BD4680BD0000E9
:1041E00080B58AB000AFF860B9607A603B600023A8
:1041F0007B62FB68002B0BD14FF0500383F31188D7
:10420000BFF36F8FBFF34F8F3B6200BF00BFFDE76F
:10421000194B1B68002B2AD0BB683B617B687B6114
:10422000FB68BB61BB68052B18DCFFF701FB03468D
:10423000022B09D1104B186807F1100100233A6BCB
:10424000FDF786FC786212E00B4B186807F110014D
:1042500000230022FDF77CFC786208E0064B18681A
:1042600007F1100100233A68FDF774FD78627B6A5C
:1042700018462837BD4680BD5040002080B588B024
:1042800002AF78603960234B1B68DB68DB687B61B9
:104290007B6904331846FDF77DFA7B6993F8283073
:1042A00003F00403002B23D07B699A697B68D11843
:1042B0007B683A68786900F0D5F80346002B20D077
:1042C0000023009300237A6800217869FFF788FFB4
:1042D00038613B69002B14D14FF0500383F31188F0
:1042E000BFF36F8FBFF34F8FFB6000BF00BFFDE7D1
:1042F0007B6993F8283023F00103DAB27B6983F8F5
:1043000028207B691B6A7869984700BF1837BD462B
:1043100080BD00BF4840002080B584B000AF786009
:1043200007F10803184600F059F8F860BB68194611
:10433000F86800F005F800F0D7F800BFF0E70000DB
:1043400080B584B000AF78603960FEF703FD07F1F7
:104350000803184600F066F8F860BB68002B30D1FF
:104360003B68002B0AD17A68FB689A4206D8FEF7B0
:1043700037FDF9687868FFF781FF24E03B68002B80
:1043800008D0134B1B681B68002B01D1012300E0F0
:1043900000233B600F4B18687A68FB68D31A3A68B1
:1043A0001946FEF757FAFEF71BFD0346002B0AD10C
:1043B000094B4FF080521A60BFF34F8FBFF36F8FDE
:1043C00001E0FEF70DFD00BF1037BD4680BD00BF08
:1043D0004C4000205040002004ED00E080B485B047
:1043E00000AF78600E4B1B681B68002B01D10122C7
:1043F00000E000227B681A607B681B68002B05D1F7
:10440000074B1B68DB681B68FB6001E00023FB6057
:10441000FB6818461437BD465DF8047B704700BF43
:104420004840002080B584B000AF7860FEF776FD8C
:10443000F8600B4B1B68FA689A4205D200F03AF913
:104440007B6801221A6002E07B6800221A60044A3D
:10445000FB681360FB6818461037BD4680BD00BF7F
:104460005840002080B586B000AFF860B9607A602F
:104470003B6000237B61FB68BA685A60FB68FA689E
:104480001A61BA687B689A4212D87A683B68D21A75
:10449000FB689B699A4202D301237B611BE0104BAE
:1044A0001A68FB68043319461046FDF73AF912E022
:1044B0007A683B689A4206D2BA683B689A4202D34D
:1044C00001237B6107E0074B1A68FB680433194638
:1044D0001046FDF726F97B6918461837BD4680BDA2
:1044E0004C4000204840002080B58EB002AFCEE0A6
:1044F0007B68002B19DA3B1D0433FB62FB6A002B3F
:104500000BD14FF0500383F31188BFF36F8FBFF3CC
:104510004F8FFB6100BF00BFFDE7FB6A1B68FA6AB3
:104520005068FA6A9268114698477B68002BC0F27F
:10453000AE80FB68BB62BB6A5B69002B04D0BB6AC0
:1045400004331846FDF726F93B461846FFF76AFF85
:1045500078627B68092B00F2978001A252F823F061
:10456000894500088945000889450008FF4500087D
:10457000134600085F460008894500088945000881
:10458000FF45000813460008BB6A93F8283043F043
:104590000103DAB2BB6A83F82820BA68BB6A9B6958
:1045A000D118BB687A6AB86AFFF75CFF0346002B34
:1045B0006CD0BB6A1B6AB86A9847BB6A93F828300C
:1045C00003F00403002B61D0BA68BB6A9B691A44EC
:1045D0000023009300230021B86AFFF701FE386230
:1045E0003B6A002B52D14FF0500383F31188BFF385
:1045F0006F8FBFF34F8FBB6100BF00BFFDE7BB6A8A
:1046000093F8283023F00103DAB2BB6A83F828203C
:104610003DE0BB6A93F8283043F00103DAB2BB6A8D
:1046200083F82820BA68BB6A9A61BB6A9B69002B31
:104630000BD14FF0500383F31188BFF36F8FBFF39B
:104640004F8F7B6100BF00BFFDE7BB6A9A697B6A41
:10465000D1187B6A7A6AB86AFFF704FF17E0BB6A71
:1046600093F8283003F00203002B03D1B86A01F05D
:10467000BBFA0CE0BB6A93F8283023F00103DAB2EE
:10468000BB6A83F8282002E000BF00E000BF084BAF
:104690001B68391D00221846FDF78AFC0346002BD3
:1046A0007FF426AF00BF00BF3037BD4680BD00BFDE
:1046B0005040002080B588B002AF49E02E4B1B6807
:1046C000DB681B683B612C4B1B68DB68DB68FB60AD
:1046D000FB6804331846FDF75DF8FB681B6AF86851
:1046E0009847FB6893F8283003F00403002B2FD081
:1046F000FB689B693A691344BB60BA683B699A429C
:104700000ED9FB68BA685A60FB68FA681A611A4BDE
:104710001A68FB68043319461046FDF702F817E0E3
:104720000023009300233A690021F868FFF758FD41
:1047300078607B68002B0BD14FF0500383F3118816
:10474000BFF36F8FBFF34F8F3B6000BF00BFFDE72C
:10475000094B1B681B68002BB0D1074B1B687B61A2
:10476000064B1B68044A1360044A7B69136000BF50
:104770001837BD4680BD00BF484000204C40002097
:1047800080B582B002AF01F07FFC154B1B68002B97
:1047900020D11448FCF774FF1348FCF771FF134B4A
:1047A000104A1A60124B104A1A6000230093114BF2
:1047B000114A10210A20FDF781F80346084A1360C8
:1047C000074B1B68002B05D0054B1B680B4918468F
:1047D000FDF7ECFF01F08AFC00BFBD4680BD00BFC5
:1047E000504000202040002034400020484000205D
:1047F0004C400020FC4000205C400020542901086F
:1048000080B586B000AF78607B687B617B68002BE9
:104810000BD14FF0500383F31188BFF36F8FBFF3B9
:104820004F8FFB6000BF00BFFDE701F02DFC7B69EF
:10483000DB693B6101F05AFC3B6918461837BD46FD
:1048400080BD000080B58AB000AFF860B9607A60C2
:104850003B606FF001037B61FB68BB61BB68FB6180
:104860007B683B62064B186807F1140100233A6825
:10487000FDF770FA78627B6A18462837BD4680BD1E
:104880005040002080B483B000AF03463960FB7114
:1048900097F90730002B0ADB3B68DAB20C4997F92D
:1048A00007301201D2B20B4483F800230AE03B68C0
:1048B000DAB20849FB7903F00F03043B1201D2B2CC
:1048C0000B441A7600BF0C37BD465DF8047B704779
:1048D00000E100E000ED00E080B500AF054B1B6893
:1048E000FEF7A6FF0346012B01D001F05DFC00BFDF
:1048F00080BD00BF10E000E080B500AF00216FF088
:104900000400FFF7BFFF00BF80BD000080B483B08C
:1049100000AFEFF305833B603B68002B03D06FF0E3
:1049200005037B600CE00A4B1B68002B05D1084B8C
:1049300001221A6000237B6002E04FF0FF337B60AE
:104940007B6818460C37BD465DF8047B704700BF96
:104950004C41002080B582B000AFEFF305833B608F
:104960003B68002B03D06FF005037B6010E00B4B1E
:104970001B68012B09D1FFF7BFFF084B02221A6009
:10498000FEF77EF900237B6002E04FF0FF337B608F
:104990007B6818460837BD4680BD00BF4C410020EB
:1049A00080B58EB004AFF860B9607A6000233B61D7
:1049B000EFF305837B617B69002B7ED1FB68002BC5
:1049C0007BD080233B621823FB6100237B624FF086
:1049D000FF33BB617B68002B45D07B681B68002BD5
:1049E00002D07B681B687B627B689B69002B02D0CE
:1049F0007B689B69FB61FB69002B08D0FB69382B46
:104A000005D87B685B6803F00103002B01D000230D
:104A100054E07B685B69002B03D07B685B699B0873
:104A20003B627B689B68002B0ED07B68DB68632B46
:104A30000AD97B681B69002B06D07B685B69002B59
:104A400002D00123BB6110E07B689B68002B0CD176
:104A50007B68DB68002B08D17B681B69002B04D1C5
:104A60000023BB6101E00023BB61BB69012B10D1B6
:104A70007B681B697A68926802920193FB690093D4
:104A8000BB683A6A796AF868FDF718FF03463B612C
:104A900013E0BB69002B10D13B6A9AB207F11003F7
:104AA0000193FB690093BB68796AF868FDF766FFBC
:104AB0000346012B01D000233B613B691846283790
:104AC000BD4680BD80B582B000AFFEF7A1FE786024
:104AD0007B6818460837BD4680BD000080B588B0A9
:104AE00002AF786039607B687B617B69002B02D004
:104AF0003B68002B03DA6FF00303FB6035E04FF0F7
:104B0000FF33FB60EFF305833B613B69002B1FD054
:104B10000023BB6007F108030093002301223968DA
:104B20007869FFF741F907F10C0300220092002297
:104B300000217869FFF738F9BB68002B15D00D4BC1
:104B40004FF080521A60BFF34F8FBFF36F8F0CE0AE
:104B50000023012239687869FFF76AF807F10C032E
:104B6000002200217869FFF763F8FB6818461837C0
:104B7000BD4680BD04ED00E080B586B000AF786032
:104B8000EFF30583FB60FB68002B03D06FF0050398
:104B90007B612AE07B68002B03DA6FF003037B6103
:104BA00023E0FEF735FE386107F1080300220021FB
:104BB0003869FFF73DF80346012B13D1BB687B61D1
:104BC0007B68DA43BB681340BB60B96800230322EB
:104BD0003869FFF72DF80346012B06D04FF0FF335D
:104BE0007B6102E04FF0FF337B617B691846183729
:104BF000BD4680BD80B58CB000AFF860B9607A600A
:104C0000EFF305837B617B69002B03D06FF0050315
:104C1000FB626BE0FB68002B03DA6FF00303FB62BF
:104C200064E0BB6803F00203002B02D00023BB62E8
:104C300001E0FB68BB620023FB627B687B62FEF7DE
:104C40006DF9386207F110027B6AB96A0020FEF73D
:104C500095FFF861FB69012B37D1FA6AFB681340B5
:104C6000FB623B69FA6A1343FB62BB6803F0010312
:104C7000002B0CD0FA68FB6A1340FA689A4232D0D3
:104C80007B68002B0FD16FF00203FB622EE0FA6805
:104C9000FB6A1340002B28D17B68002B03D16FF0F7
:104CA0000203FB6222E0FEF739F902463B6AD31A9F
:104CB000BB61BA697B6A9A4202D900237B620EE02B
:104CC0007A6ABB69D31A7B6209E07B68002B03D147
:104CD0006FF00203FB6202E06FF00103FB62FB690D
:104CE000002BAFD102E000BF00E000BFFB6A184616
:104CF0003037BD4680BD80B584B000AF7860EFF33B
:104D00000583BB60BB68002B03D06FF00503FB601D
:104D100007E00023FB607B68002B02D07868FDF77A
:104D200079FFFB6818461037BD4680BD80B584B05A
:104D300000AF78607868FFF763FDF860FB68002BD0
:104D400005D0FB681B68FA6852681046984700BF98
:104D50001037BD4680BD000080B58CB002AFF86052
:104D60007A603B600B46FB7200233B62EFF30583E6
:104D70003B613B69002B63D1FB68002B60D00820AE
:104D800000F064FE78617B69002B59D07B69FA687A
:104D90001A607B697A685A60FB7A002B02D1002383
:104DA000FB6101E00123FB614FF0FF33BB61002396
:104DB0007B623B68002B1CD03B681B68002B02D039
:104DC0003B681B687B623B689B68002B06D03B6896
:104DD000DB682B2B02D90123BB610CE03B689B688D
:104DE000002B08D13B68DB68002B04D10023BB619A
:104DF00001E00023BB61BB69012B0CD13B689B68C0
:104E00000193124B00937B69FA690121786AFFF7DD
:104E10006AF938620BE0BB69002B08D10B4B009399
:104E20007B69FA690121786AFFF73CF938623B6ACD
:104E3000002B05D17B69002B02D0786900F0D4FEED
:104E40003B6A18462837BD4680BD00BF2D4D00087F
:104E500080B588B002AF786039607B683B61EFF362
:104E60000583FB60FB68002B03D06FF005037B61BB
:104E700017E03B69002B03D16FF003037B6110E067
:104E80000023009300233A6804213869FFF7A8F94A
:104E90000346012B02D100237B6102E06FF0020385
:104EA0007B617B6918461837BD4680BD80B586B0EA
:104EB00000AF786000237B61EFF30583FB60FB6844
:104EC000002B2DD14FF0FF333B617B68002B15D0B9
:104ED0007B689B68002B06D07B68DB681F2B02D9A0
:104EE00001233B610CE07B689B68002B08D17B6849
:104EF000DB68002B04D100233B6101E000233B6110
:104F00003B69012B06D17B689B681846FCF744F986
:104F1000786105E03B69002B02D1FCF776F97861F6
:104F20007B6918461837BD4680BD000080B586B045
:104F300000AF786039607B683B613B69002B03D030
:104F40003B68B3F1807F03D36FF003037B6128E0FC
:104F5000EFF30583FB60FB68002B1DD00023BB60D3
:104F600007F108031A4639683869FCF775FB0346F0
:104F7000002B03D16FF002037B6112E03B687B6181
:104F8000BB68002B0DD0094B4FF080521A60BFF365
:104F90004F8FBFF36F8F04E039683869FCF794FADC
:104FA00078617B6918461837BD4680BD04ED00E086
:104FB00080B586B000AF786039607B683B613B6943
:104FC000002B03D03B68B3F1807F03D36FF0030362
:104FD0007B6119E0EFF30583FB60FB68002B0ED0CB
:104FE0003869FCF74DFA786139683869FCF734FAAA
:104FF0000346002B08D16FF002037B6104E039689F
:105000003869FCF7EFF978617B6918461837BD46B7
:1050100080BD80B58CB002AFF860B9607A603B604B
:10502000FB68BB61BB69002B03D0BB68B3F1807F19
:1050300003D36FF00303FB614BE0EFF305837B6168
:105040007B69002B03D06FF00503FB6141E07B68B7
:1050500003F00103002B02D001237B6201E0002357
:105060007B627B6803F00203002B02D000233B62CB
:1050700001E001233B623B6800937B6A3A6AB968AE
:10508000B869FCF7DDF8F8617B6803F00103002BD9
:1050900010D0BA68FB691340BA689A4219D03B68CD
:1050A000002B03D06FF00103FB6112E06FF00203ED
:1050B000FB610EE0BA68FB691340002B09D13B6825
:1050C000002B03D06FF00103FB6102E06FF00203DD
:1050D000FB61FB6918462837BD4680BD80B58AB0A4
:1050E00002AFF860B9607A600023FB61EFF30583DB
:1050F0003B613B69002B75D1FB68002B72D0BA680D
:10510000FB689A426ED84FF0FF33BB617B68002B7F
:1051100015D07B689B68002B06D07B68DB684F2B23
:1051200002D90123BB610CE07B689B68002B08D18E
:105130007B68DB68002B04D10023BB6101E0002306
:10514000BB61BB69B3F1FF3F4CD0FB68012B28D199
:10515000BB69012B0AD17B689B6803220092002265
:1051600000210120FCF7AAFBF86105E003220021E1
:105170000120FCF720FCF861FB69002B22D0BB6802
:10518000002B1FD0002300220021F869FCF7E0FC6F
:105190000346012B16D0F869FDF7BCF90023FB612B
:1051A00010E0BB69012B08D17B689B681A46B9687F
:1051B000F868FCF75EFCF86104E0B968F868FCF791
:1051C00091FCF861FB69002B0CD07B68002B03D0AD
:1051D0007B681B687B6101E000237B617969F8696A
:1051E000FDF7E4FAFB6918462037BD4680BD000094
:1051F00080B586B000AF786039607B683B61002382
:105200007B613B69002B03D16FF003037B6139E0C5
:10521000EFF30583FB60FB68002B22D03B68002B7B
:1052200003D06FF003037B612CE00023BB6007F128
:1052300008031A4600213869FDF7ACF80346012B34
:1052400003D06FF002037B611CE0BB68002B19D018
:105250000F4B4FF080521A60BFF34F8FBFF36F8F29
:1052600010E039683869FCF785FF0346012B09D047
:105270003B68002B03D06FF001037B6102E06FF00D
:1052800002037B617B6918461837BD4680BD00BFAD
:1052900004ED00E080B586B000AF78607B683B61CC
:1052A00000237B613B69002B03D16FF003037B611B
:1052B0002CE0EFF30583FB60FB68002B1AD0002382
:1052C000BB6007F1080319463869FCF7E1FD0346A6
:1052D000012B03D06FF002037B6117E0BB68002B4A
:1052E00014D00D4B4FF080521A60BFF34F8FBFF3B5
:1052F0006F8F0BE00023002200213869FCF728FCA7
:105300000346012B02D06FF002037B617B691846D4
:105310001837BD4680BD00BF04ED00E080B58AB0FF
:1053200002AFF860B9607A600023FB61EFF3058398
:105330003B613B69002B5FD1FB68002B5CD0BB68F5
:10534000002B59D04FF0FF33BB617B68002B29D075
:105350007B689B68002B12D07B68DB684F2B0ED9D3
:105360007B681B69002B0AD07B685A69FB68B968A7
:1053700001FB03F39A4202D30123BB6114E07B6873
:105380009B68002B10D17B68DB68002B0CD17B68FD
:105390001B69002B08D17B685B69002B04D10023BB
:1053A000BB6101E00023BB61BB69012B0BD17B68B2
:1053B0001A697B689B6800210091B968F868FCF75E
:1053C0007DFAF86108E0BB69002B05D10022B968BD
:1053D000F868FCF7F0FAF861FB69002B0CD07B68E9
:1053E000002B03D07B681B687B6101E000237B619D
:1053F0007969F869FDF7DAF9FB6918462037BD4687
:1054000080BD000080B588B000AFF860B9603B6037
:105410001346FB71FB68BB610023FB61EFF305835F
:105420007B617B69002B28D0BB69002B05D0BB6852
:10543000002B02D03B68002B03D06FF00303FB610D
:1054400038E000233B6107F110020023B968B86916
:10545000FCF780FC0346012B03D06FF00203FB61D5
:1054600028E03B69002B25D0154B4FF080521A6085
:10547000BFF34F8FBFF36F8F1CE0BB69002B02D0CF
:10548000BB68002B03D16FF00303FB6112E0002324
:105490003A68B968B869FCF75BFB0346012B09D091
:1054A0003B68002B03D06FF00103FB6102E06FF05B
:1054B0000203FB61FB6918462037BD4680BD00BF73
:1054C00004ED00E080B588B000AFF860B9607A60A4
:1054D0003B60FB68BB610023FB61EFF305837B61ED
:1054E0007B69002B28D0BB69002B05D0BB68002B43
:1054F00002D03B68002B03D06FF00303FB6137E061
:1055000000233B6107F110031A46B968B869FCF73C
:1055100041FF0346012B03D06FF00203FB6127E03C
:105520003B69002B24D0154B4FF080521A60BFF31B
:105530004F8FBFF36F8F1BE0BB69002B02D0BB689E
:10554000002B03D16FF00303FB6111E03A68B968E7
:10555000B869FCF72DFD0346012B09D03B68002BF1
:1055600003D06FF00103FB6102E06FF00203FB6107
:10557000FB6918462037BD4680BD00BF04ED00E042
:1055800080B58AB000AFF860B9607A60EFF3058348
:105590003B613B69002B02D000237B62BEE0FB68CD
:1055A000002B02D0BB68002B02D100237B62B5E048
:1055B00000237B62BB68033323F00302FB6802FB1A
:1055C00003F37B6100233B624FF0FF33FB614FF03D
:1055D000FF33BB617B68002B38D07B681B68002BD6
:1055E00002D07B681B683B627B689B68002B06D0FF
:1055F0007B68DB68732B02D90123FB6109E07B68C0
:105600009B68002B05D17B68DB68002B01D1002350
:10561000FB617B681B69002B06D17B685B69002BF3
:1056200002D10023BB6115E07B681B69002B11D000
:105630007B681B6903F00303002B0BD17B685B695C
:105640007A699A4206D80123BB6103E00023FB611B
:105650000023BB61FB69002B04D1742000F0F6F934
:10566000786202E07B689B687B627B6A002B1BD0C0
:105670007B6A24331A46F968F868FCF7FAF902469F
:105680007B6A5A607B6A5B68002B0DD0BB69002B7C
:1056900006D1786900F0DAF902467B6A9A6003E085
:1056A0007B681A697B6A9A607B6A002B2BD07B6AC5
:1056B0009B68002B27D07B6A00221A607B6A7A697C
:1056C000DA607B6A3A6A1A617B6ABA685A617B6AF5
:1056D000FA689A617B6A0022DA617B6A124A1A626E
:1056E000FB69002B05D17B6A1B6A43F001027B6AD0
:1056F0001A62BB69002B11D17B6A1B6A43F002025C
:105700007B6A1A620AE0FB69002B05D17B6A002BD9
:1057100002D0786A00F068FA00237B627B6A184640
:105720002837BD4680BD00BF0000ED5E80B58AB061
:1057300000AF786039607B68002B02D100237B6268
:1057400062E000237B627B683B623B6A1A6A314BF2
:105750001340304A934257D1EFF30583BB61BB69D5
:10576000002B32D03B68002B4ED13B6A5B68002295
:1057700000211846FCF70EFE0346012B44D13B6A7C
:105780001A6A244B1340234A93423DD1EFF311820E
:105790004FF0500383F31188BFF36F8FBFF34F8F28
:1057A0007A613B617B69FB61386A00F0EFF87862EF
:1057B0007B6A002B03D1386A00F0C6F87862FB6977
:1057C000FB60FB6883F311881EE03B6A5B68396805
:1057D0001846FCF7CFFC0346012B15D13B6A1A6A29
:1057E0000C4B13400B4A93420ED100F04DFC386A2B
:1057F00000F0CCF878627B6A002B03D1386A00F0A5
:10580000A3F8786200F072FC7B6A18462837BD4620
:1058100080BD00BF0000ED5E80B58AB000AF78604B
:1058200039607B68002B02D03B68002B03D16FF0FE
:1058300003037B627FE07B683B623B6A1A6A404BF2
:1058400013403F4A934203D06FF002037B6272E041
:105850003B6A9B683A689A4208D33B6A9A683B6AFB
:10586000DB68013B13443A689A4203D96FF00303A3
:105870007B6260E000237B62EFF30583BB61BB6961
:10588000002B3BD03B6A5B681846FCF724FE0246BF
:105890003B6A9B699A4203D16FF002037B624AE044
:1058A000EFF311824FF0500383F31188BFF36F8F32
:1058B000BFF34F8F3A61FB603B69FB613968386A1F
:1058C00000F07CF8FB697B617B6983F3118800BF82
:1058D0000023BB603B6A5B6807F10802114618466B
:1058E000FCF7D6FABB68002B25D0164B4FF0805240
:1058F0001A60BFF34F8FBFF36F8F1CE03B6A5B688A
:105900001846FCF7C9FD02463B6A9B699A4203D1DF
:105910006FF002037B620EE000F0B6FB3968386A74
:1059200000F04CF800F0E2FB3B6A586800230022CC
:105930000021FCF70DF97B6A18462837BD4680BD6B
:105940000000ED5E04ED00E080B485B000AF78604B
:105950000023FB607B68DA697B689B699A420ED200
:105960007B689A687B685B697968C96901FB03F3A6
:105970001344FB607B68DB695A1C7B68DA61FB6857
:1059800018461437BD465DF8047B704780B485B077
:1059900000AF78600023FB607B681B68002B06D09B
:1059A0007B681B68FB60FB681A687B681A60FB6891
:1059B00018461437BD465DF8047B704780B485B047
:1059C00000AF786039603B68FB607B681A68FB68F1
:1059D0001A607B68FA681A6000BF1437BD465DF82C
:1059E000047B704780B485B000AFF860B9607A601E
:1059F000FB68074A1A60BB68064A1A607B68802207
:105A00001A6000BF1437BD465DF8047B704700BFC5
:105A100050410020B441002080B485B000AFF86050
:105A2000B9607A60FB68074A1A60BB68064A1A6068
:105A30007B684FF480721A6000BF1437BD465DF872
:105A4000047B7047B44300201844002080B58AB01E
:105A500000AF78600023FB61FDF77CF95C4B1B68AD
:105A6000002B01D100F024F95A4B1A687B681340CF
:105A7000002B40F095807B68002B1ED008227B68AD
:105A800013447B607B6803F00703002B15D07B6811
:105A900023F0070308337B607B6803F00703002BC8
:105AA0000BD04FF0500383F31188BFF36F8FBFF318
:105AB0004F8F7B6100BF00BFFDE77B68002B6FD07D
:105AC000454B1B687A689A426AD8444B3B62434B09
:105AD0001B687B6204E07B6A3B627B6A1B687B62BB
